{
  "_format": "hh3-artifact-1",
  "contractName": "TokenVault",
  "sourceName": "contracts/TokenVault.sol",
  "abi": [
    {
      "inputs": [],
      "stateMutability": "nonpayable",
      "type": "constructor"
    },
    {
      "anonymous": false,
      "inputs": [
        {
          "indexed": true,
          "internalType": "address",
          "name": "user",
          "type": "address"
        },
        {
          "indexed": false,
          "internalType": "uint256",
          "name": "amount",
          "type": "uint256"
        }
      ],
      "name": "Deposited",
      "type": "event"
    },
    {
      "anonymous": false,
      "inputs": [
        {
          "indexed": true,
          "internalType": "address",
          "name": "user",
          "type": "address"
        },
        {
          "indexed": false,
          "internalType": "uint256",
          "name": "amount",
          "type": "uint256"
        }
      ],
      "name": "Withdrawn",
      "type": "event"
    },
    {
      "anonymous": false,
      "inputs": [
        {
          "indexed": true,
          "internalType": "address",
          "name": "previousOwner",
          "type": "address"
        },
        {
          "indexed": true,
          "internalType": "address",
          "name": "newOwner",
          "type": "address"
        }
      ],
      "name": "ownerShipTransfered",
      "type": "event"
    },
    {
      "inputs": [
        {
          "internalType": "address",
          "name": "",
          "type": "address"
        }
      ],
      "name": "balances",
      "outputs": [
        {
          "internalType": "uint256",
          "name": "",
          "type": "uint256"
        }
      ],
      "stateMutability": "view",
      "type": "function"
    },
    {
      "inputs": [],
      "name": "deposit",
      "outputs": [],
      "stateMutability": "payable",
      "type": "function"
    },
    {
      "inputs": [],
      "name": "owner",
      "outputs": [
        {
          "internalType": "address",
          "name": "",
          "type": "address"
        }
      ],
      "stateMutability": "view",
      "type": "function"
    },
    {
      "inputs": [
        {
          "internalType": "uint256",
          "name": "amount",
          "type": "uint256"
        }
      ],
      "name": "ownerWithdraw",
      "outputs": [],
      "stateMutability": "nonpayable",
      "type": "function"
    },
    {
      "inputs": [
        {
          "internalType": "address",
          "name": "newOwner",
          "type": "address"
        }
      ],
      "name": "transferOwnership",
      "outputs": [],
      "stateMutability": "nonpayable",
      "type": "function"
    },
    {
      "inputs": [
        {
          "internalType": "uint256",
          "name": "amount",
          "type": "uint256"
        }
      ],
      "name": "withdraw",
      "outputs": [],
      "stateMutability": "nonpayable",
      "type": "function"
    },
    {
      "inputs": [],
      "name": "withdrawAll",
      "outputs": [],
      "stateMutability": "nonpayable",
      "type": "function"
    }
  ],
  "bytecode": "0x6080604052348015600e575f5ffd5b50335f5f6101000a81548173ffffffffffffffffffffffffffffffffffffffff021916908373ffffffffffffffffffffffffffffffffffffffff160217905550610c598061005b5f395ff3fe60806040526004361061006f575f3560e01c8063853828b61161004d578063853828b6146100ff5780638da5cb5b14610115578063d0e30db01461013f578063f2fde38b146101495761006f565b806327e235e3146100735780632e1a7d4d146100af57806333f707d1146100d7575b5f5ffd5b34801561007e575f5ffd5b5061009960048036038101906100949190610812565b610171565b6040516100a69190610855565b60405180910390f35b3480156100ba575f5ffd5b506100d560048036038101906100d09190610898565b610186565b005b3480156100e2575f5ffd5b506100fd60048036038101906100f89190610898565b6102ee565b005b34801561010a575f5ffd5b50610113610428565b005b348015610120575f5ffd5b50610129610561565b60405161013691906108d2565b60405180910390f35b610147610585565b005b348015610154575f5ffd5b5061016f600480360381019061016a9190610812565b61066a565b005b6001602052805f5260405f205f915090505481565b8060015f3373ffffffffffffffffffffffffffffffffffffffff1673ffffffffffffffffffffffffffffffffffffffff1681526020019081526020015f20541015610206576040517f08c379a00000000000000000000000000000000000000000000000000000000081526004016101fd90610945565b60405180910390fd5b8060015f3373ffffffffffffffffffffffffffffffffffffffff1673ffffffffffffffffffffffffffffffffffffffff1681526020019081526020015f205f8282546102529190610990565b925050819055503373ffffffffffffffffffffffffffffffffffffffff166108fc8290811502906040515f60405180830381858888f1935050505015801561029c573d5f5f3e3d5ffd5b503373ffffffffffffffffffffffffffffffffffffffff167f7084f5476618d8e60b11ef0d7d3f06914655adb8793e28ff7f018d4c76d505d5826040516102e39190610855565b60405180910390a250565b5f5f9054906101000a900473ffffffffffffffffffffffffffffffffffffffff1673ffffffffffffffffffffffffffffffffffffffff163373ffffffffffffffffffffffffffffffffffffffff161461037c576040517f08c379a000000000000000000000000000000000000000000000000000000000815260040161037390610a33565b60405180910390fd5b5f3373ffffffffffffffffffffffffffffffffffffffff16826040516103a190610a7e565b5f6040518083038185875af1925050503d805f81146103db576040519150601f19603f3d011682016040523d82523d5f602084013e6103e0565b606091505b5050905080610424576040517f08c379a000000000000000000000000000000000000000000000000000000000815260040161041b90610adc565b60405180910390fd5b5050565b5f5f9054906101000a900473ffffffffffffffffffffffffffffffffffffffff1673ffffffffffffffffffffffffffffffffffffffff163373ffffffffffffffffffffffffffffffffffffffff16146104b6576040517f08c379a00000000000000000000000000000000000000000000000000000000081526004016104ad90610a33565b60405180910390fd5b5f3373ffffffffffffffffffffffffffffffffffffffff16476040516104db90610a7e565b5f6040518083038185875af1925050503d805f8114610515576040519150601f19603f3d011682016040523d82523d5f602084013e61051a565b606091505b505090508061055e576040517f08c379a000000000000000000000000000000000000000000000000000000000815260040161055590610adc565b60405180910390fd5b50565b5f5f9054906101000a900473ffffffffffffffffffffffffffffffffffffffff1681565b5f34116105c7576040517f08c379a00000000000000000000000000000000000000000000000000000000081526004016105be90610b6a565b60405180910390fd5b3460015f3373ffffffffffffffffffffffffffffffffffffffff1673ffffffffffffffffffffffffffffffffffffffff1681526020019081526020015f205f8282546106139190610b88565b925050819055503373ffffffffffffffffffffffffffffffffffffffff167f2da466a7b24304f47e87fa2e1e5a81b9831ce54fec19055ce277ca2f39ba42c4346040516106609190610855565b60405180910390a2565b5f5f9054906101000a900473ffffffffffffffffffffffffffffffffffffffff1673ffffffffffffffffffffffffffffffffffffffff163373ffffffffffffffffffffffffffffffffffffffff16146106f8576040517f08c379a00000000000000000000000000000000000000000000000000000000081526004016106ef90610a33565b60405180910390fd5b5f73ffffffffffffffffffffffffffffffffffffffff168173ffffffffffffffffffffffffffffffffffffffff1603610766576040517f08c379a000000000000000000000000000000000000000000000000000000000815260040161075d90610c05565b60405180910390fd5b61076f81610772565b50565b805f5f6101000a81548173ffffffffffffffffffffffffffffffffffffffff021916908373ffffffffffffffffffffffffffffffffffffffff16021790555050565b5f5ffd5b5f73ffffffffffffffffffffffffffffffffffffffff82169050919050565b5f6107e1826107b8565b9050919050565b6107f1816107d7565b81146107fb575f5ffd5b50565b5f8135905061080c816107e8565b92915050565b5f60208284031215610827576108266107b4565b5b5f610834848285016107fe565b91505092915050565b5f819050919050565b61084f8161083d565b82525050565b5f6020820190506108685f830184610846565b92915050565b6108778161083d565b8114610881575f5ffd5b50565b5f813590506108928161086e565b92915050565b5f602082840312156108ad576108ac6107b4565b5b5f6108ba84828501610884565b91505092915050565b6108cc816107d7565b82525050565b5f6020820190506108e55f8301846108c3565b92915050565b5f82825260208201905092915050565b7f496e73756666696369656e7420776974686472617700000000000000000000005f82015250565b5f61092f6015836108eb565b915061093a826108fb565b602082019050919050565b5f6020820190508181035f83015261095c81610923565b9050919050565b7f4e487b71000000000000000000000000000000000000000000000000000000005f52601160045260245ffd5b5f61099a8261083d565b91506109a58361083d565b92508282039050818111156109bd576109bc610963565b5b92915050565b7f4f6e6c79206f776e65722063616e2063616c6c20746869732066756e6374696f5f8201527f6e00000000000000000000000000000000000000000000000000000000000000602082015250565b5f610a1d6021836108eb565b9150610a28826109c3565b604082019050919050565b5f6020820190508181035f830152610a4a81610a11565b9050919050565b5f81905092915050565b50565b5f610a695f83610a51565b9150610a7482610a5b565b5f82019050919050565b5f610a8882610a5e565b9150819050919050565b7f5769746864726177206661696c656400000000000000000000000000000000005f82015250565b5f610ac6600f836108eb565b9150610ad182610a92565b602082019050919050565b5f6020820190508181035f830152610af381610aba565b9050919050565b7f4465706f73697420616d6f756e74206d757374206265206772656174657220745f8201527f68616e207a65726f000000000000000000000000000000000000000000000000602082015250565b5f610b546028836108eb565b9150610b5f82610afa565b604082019050919050565b5f6020820190508181035f830152610b8181610b48565b9050919050565b5f610b928261083d565b9150610b9d8361083d565b9250828201905080821115610bb557610bb4610963565b5b92915050565b7f4e6577206f776e657220697320746865207a65726f20616464726573730000005f82015250565b5f610bef601d836108eb565b9150610bfa82610bbb565b602082019050919050565b5f6020820190508181035f830152610c1c81610be3565b905091905056fea2646970667358221220ad517035cdc12bbf532611a28a1f0d7577668401552f0341ab53bf9d7bc0660264736f6c634300081c0033",
  "linkReferences": {},
  "deployedLinkReferences": {},
  "immutableReferences": {},
  "inputSourceName": "project/contracts/TokenVault.sol",
  "buildInfoId": "solc-0_8_28-96fef7e5e20ee5d03957fe5bbbfce5d5b519aee2"
}